:020000041000EA
:10000000002008205D01001013010010012B0120C9
:100010001101001011010010110100101101001058
:100020001101001011010010110100101701001042
:100030001101001011010010190100101B01001026
:100040001D0100101D0100101D0100101D010010F8
:100050001D0100101D0100101D0100101D010010E8
:100060001D0100101D0100101D0100101D010010D8
:100070001D0100101D0100101D0100101D010010C8
:100080001D0100101D0100101D0100101D010010B8
:100090001D0100101D0100101D0100101D010010A8
:1000A0001D0100101D0100101D0100101D01001098
:1000B0001D0100101D0100101D0100101D01001088
:1000C0001D0100101D0100101D0100101D01001078
:1000D0001D0100101D0100101D0100101D01001068
:1000E0001D0100101D0100101D0100101D01001058
:1000F0001D0100101D0100101D0100101D01001048
:100100001D0100101D0100101D0100101D01001037
:1001100000BE00BE00BE00BE00BE00BEEFF3058004
:10012000103800BEF2EB88710002001024020010AB
:10013000A801001090A31AE7D3DEFFFF42012110AF
:10014000FF01000088E50200793512AB4FF0000096
:100150002349086006C881F3088810474FF05040D3
:10016000006810B14FF00000F2E70FA40ECC002998
:1001700002D000F015F8F9E71A491B4A002000E008
:1001800001C19142FCD1002080F30A8817498847B9
:10019000174988471749884700BEFDE701C901C2D2
:1001A0009A42FBD3704700BF240200108801002050
:1001B0002C8D0120C88D0110308D012028E60220F1
:1001C000C0E602100000082000000820C0E602106F
:1001D00000100820001008200000000070470000F8
:1001E00008ED00E028E6022074170320DD5400200B
:0801F000450E00209954002087
:0801F8001431011001000000A8
:100200006CB8012078B8012084B8012090B8012092
:100210009CB80120A8B80120B4B80120C0B80120C2
:0402200010BA0120EF
:10022400F8B500BF0348044B834202D0034B03B12B
:100234001847704728E6022028E602200000000044
:10024400064B0749C91A891048BF0131491003D028
:10025400044B0BB101481847704700BF28E6022041
:1002640028E602200000000010B5064C237843B9AC
:10027400FFF7D8FF044B13B10448AFF30080012308
:10028400237010BD60F90220000000002C8D0120B5
:1002940008B5044B1BB104490448AFF30080BDE822
:1002A4000840CDE70000000064F902202C8D0120F5
:1002B400704700BF002001220249034B08601A6006
:1002C400704700BFF4160320F81603202621024BC2
:1002D400024A034805F098BB54A0012060A0012005
:1002E4006CA00120024B0348196805F08DBB00BFC8
:1002F400A805032090A00120F8B51A481A4D05F06E
:1003040083FB1A4805F080FB287805F0BDFA012428
:10031400174F184EA5F5805507FB04F3B6EB331FB2
:1003240004F5805216D37C2005F0AEFA0F4805F090
:100334006BFB04F58053E85C013405F0A5FAB4F5D1
:10034400FA6FE9D10C4805F05FFBBDE8F8400A20DC
:1003540005F09ABAA85C013405F096FAB4F5FA6F80
:10036400DAD1EFE794A0012094EA0120E8A001206B
:10037400CDCCCCCC33333303ECA0012038B54FF4CF
:1003840000440D4DA3060CD0295D0C48013405F042
:100394003BFBB4F5014FF5D10A20BDE8384005F028
:1003A40073BA2146064805F02FFB295D034805F082
:1003B4002BFB0134E6E700BF94DA01204CA10120B5
:1003C40044A1012038B50A2005F05EFA094C04F571
:1003D400BA75626813782A2B03D00748217805F090
:1003E40013FB0C34AC42F4D10448BDE8384005F0AA
:1003F4000BBB00BF00D9012054A1012060A1012042
:1004040038B5144D144805F081FA297B6B7B1348E9
:1004140003EB012105F0F8FA6978AB796A7803FBFC
:1004240001F1AB790E4803FB02F205F0EDFA0D4B36
:100434000D48197805F0E8FA002421462A5D0B4896
:10044400013405F0E1FA142CF7D10A20BDE8384054
:1004540005F01ABA501703207CA1012088A10120BD
:10046400A0A1012094DA0220BCA10120C8A101208E
:100474002DE9F041114882B005F048FA104A114BB9
:10048400116811481A6805F0BFFA0024DFF84880A3
:100494000E4F0F4E38F814203B5D355D21460D4854
:1004A400009592B2013405F0AFFA202CF2D10A2063
:1004B40002B0BDE8F04105F0E7B900BFD4A10120C6
:1004C400F4160320F8160320DCA10120FC160320F7
:1004D4001C17032000A20120B4160320002108B534
:1004E400084602F0E3FF00BF2DE9F041274E90B02B
:1004F40033680A205A4292B29BB258BF53423360C7
:1005040005F0C2F9002334688DF8083004F500734F
:100514009C4231D2DFF88C801D4F0DE02A4668469C
:1005240004F062FF694602A814F006F83368013447
:1005340003F50073A3421FD914F00F0511D018F866
:1005440004501448EDB2294605F05EFA7B5D124969
:1005540013F0970FE2D12E23694602A8ADF80030BC
:10056400E2E702A90D4805F04FFA21460C488DF840
:10057400085005F049FAE2E70A2005F085F93368E6
:1005840003F50073336010B0BDE8F08180150320DB
:1005940089D501204CA1012024A2012014A201200C
:1005A4001CA2012094DA012008B5234800F098FE2B
:1005B400224801F027F8214800F09AFF00221F4842
:1005C400114600F097FE1E491C4800F001FF082266
:1005D40000211A4800F08EFE1A49184800F0F8FE6F
:1005E400194805F011FA0EF075FA01F071F801F0EE
:1005F4008DF815220021114800F07CFE134B1022C7
:10060400196861B100210D4800F074FE0B481049CF
:1006140000F0DEFEBDE808400E4805F0F5B90748D5
:1006240000F068FE05480C4900F0D2FEBDE8084021
:100634000A4805F0E9B900BFA0DA022098DA0220DE
:1006440028A2012038A2012048A201207416032008
:1006540068A2012074A2012080A2012090A201209E
:100664002DE9F84F00214FF0FF3001F029FDDFF8AC
:10067400CC80DFF8CC902A4F4FF05044D4F804B02B
:10068400D4F808A00BF47066B6F5706F3FD0254817
:1006940005F0BAF95A465146234805F0B5F9FF2248
:1006A400B6F5306FCAF30A05A26336D0B6F5506FBB
:1006B40030D0B6F5E06F01D145F4C0554FF0504449
:1006C40018F805202946D2B282F0FF06A2612662FC
:1006D400164818F8052005F097F9D9F80020002AE3
:1006E400CAD052213868124B23F810503868114B85
:1006F40018F805201A543A680F4B501C3860995466
:100704003A68202AB8D10022C9F80020B4E7FF22B1
:100714002264E2E745F40065D0E745F48055CDE76F
:10072400F4160320A0A20120B0A20120BCA2012043
:10073400B41603201C170320FC16032094DA0120AE
:10074400F816032010B50121114805F05DF9114B8D
:10075400D3F800E0BEF1000F04D0BDE810400E480D
:1007640005F052B90D4BDFF83CC01B681C461868F5
:1007740059689A68DB68ACE80F0020696169ACE8E5
:1007840003007146BDE81040054805F03DB900BFBF
:10079400D0A2012080150320ECA2012078DA0120E8
:1007A400DCA20120945A022010B5194805F02CF956
:1007B4000023184C23604FF47A7005F01FF8831C53
:1007C40021D0392808DC2F2820DC1B28F3D8124B31
:1007D4000341DA07EFD410BDA0F16103052BEAD879
:1007E400573823680D4900EB031020600C4805F0CE
:1007F4000BF921680B4805F007F94FF47A7004F0FF
:10080400FDFF831CDDD104F0E7FFD4E73038E8E7CF
:1008140004A3012080150320FFDBFFF784160320C7
:1008240030A3012048A3012000B5254883B005F07A
:100834006DF824480EF0F0F810B303460122214964
:10084400483001930BF0AAFC019B28BB012283F8DA
:10085400B0221D4812F07CFA1A480EF0DDF8A0B15F
:1008640000220190174910460BF098FC019BE0B957
:10087400197E83F8B00241F00101197603B000BD7E
:100884001049124805F0C0F8E3E70E490F4803B0D9
:100894005DF804EB05F0B8B8019012F04DFA019A36
:1008A40001460B4805F0B0F8D3E7019012F044FA82
:1008B4000146019A074803B05DF804EB05F0A4B8BB
:1008C40060A3012074A30120B0A3012078A3012018
:1008D40098A30120B8A30120324A2DE9F0471368F8
:1008E40001330C2B136007DD2F4900200B681060C7
:1008F400B3FA83F35B090B604FF000082B4B1B2109
:100904001A7B5C7B987B93F80F9004EB022409EB31
:100914000029274805F078F8C4F30A041B21254868
:10092400C9F30A0905F070F84FF4FA664546224FF8
:10093400DFF874A044F4805449F4805914E0DAF8E0
:10094400003003B35F2004F09FFF0135502D04F104
:10095400010408BF0025C4F30A0408BF08F1010814
:10096400013E44F4805413D01B211448AB1C08F1FD
:10097400020217F804C005F047F8A145DFD0385D3E
:1009840004F082FFE1E717F8090004F07DFFDCE7DB
:100994001B210B4805F038F8BDE8F0471B21094836
:1009A40005F032B85C01032074DA012050170320EB
:1009B400D4A30120D8A3012094DA0120E0A30120CC
:1009C400ECA30120F0A301202DE9F843494804F0E9
:1009D4009DFFC8240A2004F057FF013CFAD1464E7B
:1009E400464805F011F8464805F00EF8307804F052
:1009F4004BFF0124DFF81C81424FA6F5805508FB0C
:100A040004F3B7EB331F04F580525BD37C2004F06E
:100A14003BFF3B4804F0F8FF04F58053E85C0134E5
:100A240004F032FFB4F5FA6FE9D1374804F0ECFF73
:100A34000A2004F029FF354FFFF74EFF4FF47A7078
:100A440004F0DCFE831C0446F6D01B2C4DD05F2C36
:100A540040D12A4804F0D8FF294804F0D5FF307863
:100A640004F012FF0124DFF8AC90DFF8988009FB52
:100A740004F3B8EB331F04F5805215D37C2004F043
:100A840003FF1F4804F0C0FF04F58053E85C013401
:100A940004F0FAFEB4F5FA6FE9D11B4804F0B4FF90
:100AA4000A2004F0F1FEC7E7A85C013404F0ECFE70
:100AB400B4F5FA6FDBD1144804F0A6FF0A2004F061
:100AC400E3FEB9E7A85C013404F0DEFEB4F5FA6F86
:100AD40095D1AAE764F07F036420002187F8213EC2
:100AE40002F062F887F8214EA6E70948BDE8F8430A
:100AF40004F00CBFF8A3012094EA012094A0012083
:100B0400E8A0012033333303ECA0012094FA012040
:100B140008A40120CDCCCCCC70B5ADF5207DFF224E
:100B2400002118A813F0C4FC344804F06DFF3448C5
:100B340000F0F4FD002856D0324804F065FFFF2190
:100B440018A80CF093FA0546002841D118A92E489C
:100B540004F05AFF2946582202A813F0A9FC2B4E90
:100B640029464FF4907258A813F0A2FC284B18AAF7
:100B740058A902A835600CF01FFF054628B135E0DE
:100B840058A902A80CF0DCFDB8B99DF87A31A3B1DC
:100B94009DF86C31DB06F3D41E4901AA0DF5BD7036
:100BA40013F09CFB019B326858A9934202A8C8BF6A
:100BB40033600CF0C5FD0028E7D002A80CF038FD26
:100BC4003168154804F020FF01200DF5207D70BD2B
:100BD40012F0B2F82A460146104804F015FF00202E
:100BE4000DF5207D70BD00F091FDF8E712F0A4F83A
:100BF4002A4601460A4804F007FFF0E71CA4012036
:100C0400B0A3012040A401206CA40120C00503204E
:100C140084A40120ACA40120B8A4012050A4012084
:100C240090A401202DE9F0470024ADF52E7D054662
:100C340062480F46019404F0E7FE00F049FD604865
:100C440000F06CFD002800F0B2805E4EFFF764FFF8
:100C540032685D49013202A8326004F0C5FB326893
:100C64005A4907A804F0C0FB02A9594804F0CCFE75
:100C7400584800F03DFC22462146564800F03AFB15
:100C84005549544800F0A4FB08222146514800F07D
:100C940031FB504802A900F09BFB062202A916A8CA
:100CA4000BF0C6FA10F0F70F08D04C4804F0ACFE75
:100CB40000F02CFD0DF52E7DBDE8F087484804F0CA
:100CC400A3FE002F36DD202FA946DFF834A11CDD5A
:100CD400A7F1210626F01F0605F12004DFF8208184
:100CE400264400E020342A4620213E4804F08CFEAD
:100CF40008EB0501202201AB16A80BF0B9FD3A4818
:100D040004F082FEB4422546ECD17A1E22F01F0480
:100D14003F1B394604EB0902324804F075FE0AEB26
:100D240009013A46214401AB16A80BF0A1FD2E4857
:100D340004F06AFE16A80CF0CBF8044680BB062229
:100D440007A916A80BF074FA10F0F70FADD12448D8
:100D540004F05AFE254916A80CF0BAFE4FF480326E
:100D6400234916A80CF0B4FE16A80CF0B1F80446FA
:100D7400B0B901461822174800F0BCFA019A1D497F
:100D84000CA804F031FB0CA9124800F021FB00F080
:100D9400BDFC194804F0BAFD0DF52E7DBDE8F087C1
:100DA40011F0CAFF22460146144804F02DFE00F05B
:100DB400ADFC0DF52E7DBDE8F08700BFD4A4012065
:100DC400B0A30120C0050320F0A40120FCA401204D
:100DD40008A5012098DA022018A5012020A50120E9
:100DE4002CA5012040A501205CA5012088A5012097
:100DF40098A50120A8A50120B4A5012070A5012073
:100E040094DA01204FF480310020FFF70BBF00BFBC
:100E140070B505460E461B48294604F0F5FD00F062
:100E240057FC194800F07AFC38B32946174804F0F7
:100E3400DBFA2846164912F007F80446C8B1154DE6
:100E4400354400E070B1012223461146284612F0D1
:100E54008BF8D4E90413E26BA66B01359A4208BF00
:100E64008E42EFD1204612F05FF800F04FFC0020D4
:100E740070BD2946084804F0C7FD00F047FC002077
:100E840070BD00BFE0A50120B0A30120BCA50120D6
:100E94008CB2012094DA0120CCA501204FF400414A
:100EA4000148FFF7B5BF00BFECA501204FF47E4118
:100EB4000148FFF7ADBF00BFFCA501204FF440413E
:100EC4000148FFF7A5BF00BF08A601204FF47841F1
:100ED4000148FFF79DBF00BF1CA6012000B50020FC
:100EE40085B000F08DFF002444EC4440012000F064
:100EF40087FF012344EC4430022000F081FF0223E9
:100F040044EC4430032000F07BFF032344EC4430E2
:100F1400042000F075FF042344EC4430052000F065
:100F24006FFF052344EC4430062000F069FF0623DC
:100F340044EC4430072000F063FF072344EC4430C2
:100F4400082000F05DFF082344EC4430092000F041
:100F540057FF092344EC44300A2000F051FF0A25CE
:100F640044EC44500B2000F04BFF0B2344EC443082
:100F74001B2000F045FF1B2344EC44301C2000F0F0
:100F84003FFF1C2344EC44301D2000F039FF1D2397
:100F940044EC4430202000F033FF202344EC443060
:100FA400212000F02DFF212344EC4430222000F0C6
:100FB40027FF222344EC4430232000F021FF232385
:100FC40044EC4430242000F01BFF242344EC443040
:100FD400252000F015FF252344EC4430262000F0A2
:100FE4000FFF262644EC4460272000F009FF272346
:100FF40044EC4430282000F003FF282344EC443020
:10100400292000F0FDFE292344EC44302A2000F07E
:10101400F7FE2A2344EC44302B2000F0F1FE2B236E
:1010240044EC44302C2000F0EBFE2C2344EC443000
:101034002D2000F0E5FE2D2344EC44302E2000F05A
:10104400DFFE2E2344EC44302F2000F0D9FE2F2362
:1010540044EC4430584803AB02AA01A902F098F8C2
:1010640018B95549554800F011FFDDE902120198FD
:1010740001F0CAFF04F0EAFE514807F0AFFA28462F
:1010840004F002FC4F4804F0BFFC4F4804F0BCFCE1
:101094004C4804F0B9FC284604F0F6FB4B4B3146AF
:1010A4004B4A4C4804F0B0FC284604F0EDFB4A4897
:1010B40000F016F9494800F0A5FA494804F0A4FCE8
:1010C4000DF008FD00F004FB00F020FB1522214682
:1010D400424800F00FF9434B1B68002B60D13F4896
:1010E400414900F075F9414804F08EFC00F0F0FA33
:1010F4003F4800F013FB3E49002859D13D4804F015
:1011040083FC3D493D4804F07FFC00F0FFFA4FF4B6
:101114007A7001F0B5FD314800F0EAF900220521AA
:101124002E4800F0E7F836492C4800F051F9102217
:1011340005212A4800F0DEF83249284800F048F931
:10114400314B3248324C334A03604FF47E413248CB
:1011540023601360FFF75CFE304E314D314C4FF489
:101164007A7004F04BFB831CF9D000232B4A04E073
:1011740001331F2B02F10C02F1D011788842F7D110
:1011840003EB430306EB83039B68286098472649D7
:10119400264804F039FC2168254804F035FCDEE7D4
:1011A40024490E4800F014F9234804F02DFC9DE76F
:1011B400224804F029FCA8E7B01E0400ECA6012094
:1011C400C905002028A6012078A6012054A00120EA
:1011D40060A00120C8A60120A0DA022098DA02202B
:1011E40048A201207416032080A2012090A20120AD
:1011F400B0A3012020A70120AC15032040A70120A3
:1012040028A2012038A201201CB80120AC0503202B
:1012140058010320B0160320FCA5012000D90120A9
:10122400A8050320801503208416032030A3012081
:1012340048A3012068A2012074A2012044A7012030
:101244002DE9F04108274FF001084FF0000506464C
:101254001AE048EC443045EC40300120002101F014
:10126400A3FC1F2445EC44400120002101F09CFC18
:1012740048EC444045EC40400120002101F094FC3E
:10128400013F4FEA460606D032064FF01E03E0D572
:1012940045EC4430E1E71E2345EC443045EC444042
:1012A4000120002101F080FC64204FF0504201E055
:1012B400013813D053685B00FAD401241F234FF084
:1012C400010242EC44304FF0000242EC4030012075
:1012D400002101F069FC2046BDE8F0810446EDE7F9
:1012E40008B51E2000F08CFDBDE808401F2000F06A
:1012F40087BD00BF70B5344B82B0344D1A604B4289
:1013040003F07F03296001F07F0158BF5942534223
:1013140003F03F0302F03F0258BF5A423629C8BFC8
:101324000131002A0446B8BF0732484200F00F00DA
:1013340001F00F0358BF43420029B8BF0F31D21048
:101344000911503A10318DF805308DF804208DF8CC
:1013540006101E234FF0010646EC44304FF0000502
:1013640045EC40300120002101F01EFC1F2346EC17
:10137400443045EC40300120002101F015FC207977
:101384000DF10705400000F0FE00FFF759FF01AC26
:101394008020FFF755FF14F8010BFFF751FFAC4213
:1013A400F6D11F234FF0000444EC44300120002107
:1013B40001F0FAFB1E2344EC44300120002102B06A
:1013C400BDE8704001F0F0BBB4050320B005032074
:1013D4002DE9F84F814608460F4613F05BFB0028C1
:1013E4006FD04FF0000882464FF0010645463B7827
:1013F400262B68D03B4A203B03EB830302EB030B11
:1014040001371E2246EC442045EC402001200021F7
:1014140001F0CAFB1F2246EC442045EC4020002189
:10142400012001F0C1FB99F804000BF10504400010
:1014340000F0FE00FFF704FF4020FFF701FF1BF858
:10144400010BFFF7FDFEA345F9D14FF01F0B45EC4F
:1014540044B00120002101F0A7FB1E2445EC4440C8
:101464000120002101F0A0FB46EC444045EC404043
:101474000120002101F098FB46EC44B045EC40B05B
:101484000021012001F090FB99F80400400000F0D5
:10149400FE00FFF7D5FE4020FFF7D2FE0020FFF745
:1014A400CFFE45EC44B00120002101F07DFB45EC6A
:1014B40044400120002108F1010801F075FBC245F8
:1014C40095DCBDE8F88F084A084B11684846023994
:1014D4001A6801EBC801FFF70DFF0AF1FF3A7B78A8
:1014E400013787E71CB60120B0050320B4050320AB
:1014F4002DE9F04F4FF0000B4FF01E094FF0010A99
:101504004FF01F085F4685B03B4E01900DF10F056B
:1015140000224FEAEB03503B8DF80C30374B4FF071
:1015240000041A60364B8DF80D40C3F800B0102348
:101534008DF80E304AEC449044EC40900120002198
:1015440001F032FB4AEC448044EC4080012000214D
:1015540001F02AFB019B03AC1879400000F0FE0067
:10156400FFF76EFE8020FFF76BFE14F8010BFFF708
:1015740067FEAC42F6D147EC44800120002101F023
:1015840013FB47EC44900120002101F00DFB4AECD1
:10159400449047EC40900120002101F005FB4AEC07
:1015A400448047EC40800021012001F0FDFA019BBA
:1015B40080241879400000F0FE00FFF741FE40202F
:1015C400FFF73EFE3078FFF73BFE013CFAD147ECD3
:1015D40044800120002101F0E7FA47EC4490012007
:1015E40000210BF1080B01F0DFFABBF1400F8FD1A2
:1015F40005B0BDE8F08F00BF72170320B0050320CB
:10160400B40503202DE9F04180461E264FF0010762
:1016140047EC44601F2547EC44504FF0000444EC71
:10162400406044EC405047EC446044EC406001208E
:10163400002101F0B9FA47EC445044EC4050012039
:10164400002101F0B1FA44EC44500120002101F0E2
:10165400ABFA44EC44600120002101F0A5FA47EC08
:10166400446044EC40600120002101F09DFA47EC05
:10167400445044EC40500120002101F095FA98F8C0
:101684000400124C400000F0FE00FFF7D9FDA5193C
:101694008020FFF7D5FD14F8010BFFF7D1FDAC4214
:1016A400F6D11F234FF0000444EC44300120002104
:1016B40001F07AFA1E2344EC44300120002101F0A9
:1016C40073FA4046BDE8F041FFF712BFFCB70120B2
:1016D400002310B5084C01220849094823600AF088
:1016E4005DFD10B90123236010BD064B064A07CAED
:1016F40083E8070010BD00BF7416032074A3012003
:10170400F8F60220AC150320A8A801200022024903
:1017140010460AF043BD00BF74A3012010B5C0B049
:101724000021FF220446684612F0C2FE11480BF065
:1017340003FCFF2168460BF099FC90B921466846EA
:1017440012F0F6FF10B9012040B010BD20460BF096
:101754000FFC0028F7D002460749084803F044FE6E
:1017640004E002460649054803F03EFE002040B06E
:1017740010BD00BF74A30120C4A80120AC15032030
:10178400B4A801200120704708B90248704700201E
:10179400704700BFA8DA02200122014B1A6070478B
:1017A400CC050320704700BF2DE9F04F434B8FB0A9
:1017B4001E688046FFF79CFE33780C2B6BD04FF0ED
:1017C400FF340025DFF80891DFF800A106F1100BC3
:1017D40024E0A21A032A2CDCDAF8001001AFA1429B
:1017E4005BF80C2C0CBF36493649384603F0FCFD37
:1017F4001BF8102C5E460A2A01D00B2A08D10021BE
:101804004046EA00FFF776FD39464046FFF7E0FD23
:10181400327801350C2A0BF1100B0AD0D9F80020CC
:101824000134A242D5DD5E4632780BF1100B0C2A4E
:10183400F4D1224B19680B780C2B25D000230133EB
:101844001A018A5C0C2AFAD1DAF800209A4211DAD9
:10185400022D0CDCED002A4600214046FFF74AFD2C
:10186400083540461849FFF7B3FD182DF3D10FB0E2
:10187400BDE8F08F0023184601331A018A5C0C2A54
:10188400F9D1CAF80000E3E7DAF80030002BDFDB17
:101894004FF0FF30F5E7094B19680B780C2B03D098
:1018A4000025DFF828A0C9E7084B1A68002A02DBE4
:1018B4004FF0FF321A600025CCE700BF5801032027
:1018C40014A901201CA9012024A90120C805032072
:1018D400C405032000212DE9F0415E4DADF53E7DA8
:1018E400FF2236A8296012F0E3FDFFF7F1FE5A4803
:1018F400FFF714FF002870D1064658480BF01CFB74
:10190400FF2136A80BF0B2FB044600286BD136A9A0
:10191400534804F079F82146582220A812F0C8FD53
:10192400214676AC4FF49072204612F0C1FD214658
:101934004C4B36AA20A80CF03FF8074600287ED16D
:1019440002AF04E0214620A80BF0FAFE18BBA37EE8
:101954000BB32B68C72B1EDC237B13F01003F1D1D0
:101964003B7041493B460DF5F9700CAA12F0B6FCE8
:101974000028E7D038463D4912F0DAFE3C4A0028F8
:10198400E0D11268B2423BDD214620A801360BF0BB
:10199400D7FE0028DBD020A80BF04AFE00210C2043
:1019A4002B68344D344C05EB0312C2E90141190193
:1019B40068543249D1600BB1314A1360314B32491A
:1019C400324A334899605A6132491862294B0022DD
:1019D4000B6031481946FFF7E7FEFFF797FE0DF558
:1019E4003E7DBDE8F08111F0A7F9224601462B485F
:1019F40004F00AF8FFF78AFE0DF53E7DBDE8F0819C
:101A040001902868264A009000EB800002EB8008D1
:101A14000DF5F9711422404612F016FE0A210098C1
:101A2400144A019B02EB00129360144BC2F8048029
:101A3400D360104A0301D154431C2B60A4E711F076
:101A44007BF93A460146174803F0DEFFFFF75EFED6
:101A5400C5E700BF74150320B0A3012074A30120BF
:101A640034A90120F8A80120FCA801204CA90120D8
:101A74009801032068EA022044AF01200D170020DA
:101A840094010320B0E80220491B0020811B0020A0
:101A9400111A00205801032098DA022050A40120D2
:101AA400D005032090A4012030B500242C4D2D4BEB
:101AB4002A688DB003EB021359682B4812F016FF05
:101AC4002A4B2B481C60FFF713FD22462146284869
:101AD400FFF710FC274B0DF1080C0FCBACE8070007
:101AE40023482CF8023B02A91B0C8CF80030FFF7AA
:101AF4006FFC0E2221461E48FFF7FCFB1A4902A880
:101B040012F0F4FE1A4802A9FFF762FC00941A4A84
:101B1400009B93420FDC0194019B092B05DC019B84
:101B240001330193019B092BF9DD009B01330093E1
:101B3400009B9342EFDD0023104A114C1168114AB7
:101B44000B48116001222B602360FFF72DFE0E4B22
:101B54000E480F490F4A986059611A620DB030BDA2
:101B6400C805032068EA02204001032098010320ED
:101B740098DA022050A90120BFC62D00B016032018
:101B8400C405032058010320B0E80220491B0020AB
:101B9400811B0020791C0020002182B000910D4A95
:101BA400009B93420FDC0191019B092B05DC019BF7
:101BB40001330193019B092BF9DD009B0133009351
:101BC400009B9342EFDD0122034B0448196802B0E5
:101BD400FFF7EABDBFC62D005801032098DA0220A2
:101BE400094A0A491368013B002BD6BF0020184656
:101BF400034610600A6806489A42C8BF0B60054B4A
:101C040000221968FFF7D0BDC8050320C4050320CE
:101C140098DA022058010320DFF860C000B5144BA5
:101C2400DCF800E019680EF10100CCF800000B7834
:101C34000C2B4FF0000304D001331A018A5C0C2AE8
:101C4400FAD1984208BF70460A4A08BFCCF800E0AF
:101C54001368C31A022B04DD02384ABF0023106044
:101C64001360002204485DF804EBFFF79DBD00BF3C
:101C740058010320C405032098DA0220C805032074
:101C840000B564228DB0FF211C4812F011FC1C48E1
:101C9400FFF72EFC00221A481146FFF72BFB194BC5
:101CA4000DF1080C0FCBACE807004FEA134E2CF8EB
:101CB400023B02A912488CF800E0FFF789FB0021DF
:101CC4000091114A009B93420FDC0191019B092B67
:101CD40005DC019B01330193019B092BF9DD009B7A
:101CE40001330093009B9342EFDD084B01221968F6
:101CF4000348FFF759FD0DB000BD00BF94DA012081
:101D040098DA022060A90120BFC62D0058010320E3
:101D1400F8B5114F3D682B780C2B14D000240F4ECE
:101D240004E015F8103F01340C2B0CD03268A242A9
:101D3400F7D10B2B08D02846EB68984715F8103FCD
:101D440001340C2BF2D1F8BDA96801220448396092
:101D5400FFF72AFDE5E700BF58010320C80503206B
:101D640098DA02204FF4807C0C4B00B553F8202005
:101D740003EB8003C00082F0400200F1804003F5D1
:101D8400805E02F0C00200F5203003F54053CEF827
:101D940000204160C3F800C000BD00BF04800340C0
:101DA400DFF81CC0C90041EA82015CF820200CEB7A
:101DB4008003514003F5805301F00C011960704712
:101DC40004800340054B53F8202003EB800351406B
:101DD40001F0010103F5805319607047048003404A
:101DE400064B53F8202003EB800382EA011202F031
:101DF400300203F580531A60704700BF048003402B
:101E04004FF0000300B543EC440043EC40004FF0B6
:101E1400050E4FF4807C0C4BC20053F8201003EBEA
:101E2400800081F0400102F1804303F5203301F08A
:101E3400C00200F5805100F540500A60C3F804E088
:101E4400C0F800C000BD00BF048003404FF01F0C69
:101E54004FF480710C4B00B553F8202003EB800342
:101E6400C00082F0400200F1804003F5805E02F081
:101E7400C00200F5203003F54053CEF80020C0F82E
:101E840004C0196000BD00BF048003400FB400B556
:101E9400084883B003F03AFD049B3BB105A91846FA
:101EA400019103F015FB044803F030FD012003F019
:101EB40027FB00BF94A90120A4AF0120EFF31080F9
:101EC40072B6064BD3E8CF1F01220029FAD1C3E82A
:101ED400412F0029F6D1BFF35F8F7047B3FC022076
:101EE4000023034AC2E88F3F80F31088704700BF85
:101EF400B3FC022070B51646EFF3108472B6DFF817
:101F040048E0DEE8CF2F0123002AFAD1CEE8423F91
:101F1400002AF6D1BFF35F8F012301F0070CCA0832
:101F240003FA0CF310F802C01CEA030508D14CEACA
:101F3400030C00F802C0CEE88F5F84F3108870BDF4
:101F44003046FFF7A3FF00BFB3FC0220F8B50F46ED
:101F54001946EFF3108672B61C4DD5E8CF4F012316
:101F6400002CFAD1C5E8443F002CF6D1BFF35F8FB3
:101F74008A421BD8012402E00132914222D3D308C1
:101F840010F803E002F0070C04FA0CFC1EEA0C0F34
:101F9400F2D14EEA0C0E00F803E010460023C5E827
:101FA4008F3F86F31088984207DBF8BD0023C5E80D
:101FB4008F3F86F310884FF0FF30002FF5D006983E
:101FC400FFF764FF4FF0FF30E8E700BFB3FC0220E7
:101FD400044A1078431CDBB2182B28BF102313705B
:101FE400704700BFD4DD022000B5DFF81CC083B009
:101FF40001461F231822CDF800C00248FFF7A6FFB0
:1020040003B000BD0C010320A4A901204FF0E0227D
:10201400936843F000539360704700BF0021044B62
:1020240003F12002C3E88F1F01339342FAD17047B2
:10203400A8FC02204FF0E0234FF08032C3F80024C4
:10204400C3F80424C3F80824C3F80C24C3F81024E8
:10205400C3F81424C3F81824C3F81C24C3F8202498
:10206400C3F82424C3F82824C3F82C24C3F8302448
:10207400704700BF012300F01F029340400941B1A3
:10208400800000F1604000F56140C0F880310360D9
:102094007047024A203042F82030704700E100E0E7
:1020A4000123064A410952F8212000F01F00834011
:1020B400134214BF01200020704700BF00E100E07C
:1020C400044B19B1C3F8800118607047C3F880004D
:1020D400704700BF00E100E001224309034900F01A
:1020E4001F008240403341F82320704700E100E0A4
:1020F400054A10309268054B52F82000C01A5F2838
:102104008CBF00200120704700ED00E0D8DD0220E4
:1021140010B582B0EFF3108472B6164BD3E8CFCF6C
:102124000122BCF1000FF9D1C3E84C2FBCF1000F20
:10213400F4D1BFF35F8F104A10309268DFF83CC0CF
:1021440052F82020624508D0914206D0CDE9000122
:1021540001F0F8F90199074B0098074A926842F890
:102164002010BFF35F8F0022C3E88F2F84F3108801
:1021740002B010BDB1FC022000ED00E01D01001012
:102184002DE9F04F06468A46154683B0EFF31088D2
:1021940072B6714FD7E8CF2F0123002AFAD1C7E8CE
:1021A400423F002AF6D1BFF35F8F6C4991F90020BA
:1021B400002A7BDB6A4802EB420400EB840393F8B9
:1021C40006C0103681F800C06649A40089684FEA49
:1021D400420B51F826E0AEEB00015F292ED962498B
:1021E4008E4540F0848043F0010E604B0234044479
:1021F400043B1B1BC3F34A036FEAC3434FF421415F
:102204006FEAD3435A4420F8221000EB8202538031
:102214004BF601539380FF23D571C2F808A0937144
:10222400504B9B6843F826E0BFF35F8F0023C7E859
:102234008F3F88F3108803B0BDE8F08F2EF0010CB7
:102244009CF80710A9425AD9B14601941E4603E0EE
:10225400CB79AB4230D98C469CF9064004EB44015F
:10226400002C00EB8101F3DA00944BF60154334661
:102274004E460CF10409043BA3EB0903C3F34A03E0
:102284006FEAC3436FEAD343ACF80430384B0BEB2B
:1022940002018CF8062040F82130009B00EB8102FB
:1022A40094809371D571C2F808A0B9E701F04AF996
:1022B4002A4991F900207DE76FF007010094019C01
:1022C40033460C1B6146241A019431F8044F4E46E0
:1022D40044F30A04023401EB4404894601990C4492
:1022E400C4F34A046FEAC4446FEAD444C3E7CDE9B3
:1022F400002301F027F9DDE90023194873E71B4A9D
:10230400A11CDD710144043A251D521A0544ACF1A7
:102314000401491BC1F34A016FEAC141C2F34A02F5
:102324006FEAC2426FEAD1414FF4214E6FEAD242C2
:1023340099800F4920F804E05A804AF6AA2562469B
:10234400121A524155432D0DC3F808A09D7143F054
:10235400010ECCF8001063E7B1FC02206D170320D6
:10236400D8DD022000ED00E01D01001038DE02205F
:10237400014880472DE9F041EFF30583DBB29E4627
:10238400EFF3108572B63549D1E8CF2F0123002A27
:10239400FAD1C1E8423F002AF6D1BFF35F8FDFF8DC
:1023A400CC8040F00106D8F808704AF6AA2357F802
:1023B4002E7004462A4AA41A644163431B0DB74293
:1023C4005BB22ED092F906409C4230D092F9124072
:1023D4009C4239D092F91E409C4237D092F92A404F
:1023E4009C4235D092F936409C4233D092F9424017
:1023F4009C4227D092F94E409C422DD092F95A40EB
:102404009C4208BF072413D0164A002492F800C047
:10241400137080F806C0C1E88F4F85F31088BDE8BB
:10242400F081D8F80820104C42F82E40ECE7002444
:1024340004EB440402EB8402FF2494714BF6015430
:102444009480E1E70524F3E70124F1E70224EFE7B0
:102454000324EDE70424EBE70624E9E7B1FC0220BA
:10246400D8DD02206D1703201D01001000ED00E0EF
:1024740000B5DFF824C083B0014605230022CDF85F
:1024840000C00448FFF762FD0028A8BFC0F1330074
:1024940003B000BD71170320C0A90120014B0B44F8
:1024A40003607047A8FC022070B5104C104DAC427C
:1024B4000ED2FF26236863B1FFF78AFD014620464A
:1024C400FFF7ECFFA680BFF35F8F0834AC42F1D373
:1024D40070BDFFF77DFD01462046FFF7DFFF267143
:1024E400BFF35F8F0834AC42E4D370BDB8E502207B
:1024F400D8E5022010B50446FFF76AFD01462046E0
:10250400FFF7CCFFFF232371BFF35F8F10BD00BF24
:1025140010B504460120FFF767FD034B0344236015
:10252400BFF35F8F10BD00BFA8FC0220024B0B4419
:102534000360BFF35F8F7047A8FC02200D4B1A683D
:10254400EFF3108172B6D2E8CFCF0120BCF1000FB7
:10255400F9D1C2E84C0FBCF1000FF4D1BFF35F8F87
:1025640000221B68C3E88F2F81F3108840BF00202E
:1025740000217047781603202DE9F04F2DED028BD2
:1025840085B0EFF30583DBB2103B9A0818BF012234
:102594004FF0010103F0030B18BFA94CA94B08BF6E
:1025A400A94C0BEB820253F8225001FA0BF204F50A
:1025B40041539FEDA18B02925A602FE0AB8819041E
:1025C40040F19480AB79002B40F0DE80B5F90860CF
:1025D400002EC0F21C816B6906EB460603EBC603B2
:1025E400D3E90267B7F1FF3F08BFB6F1FF3F0ED052
:1025F40004EB8B01A36A0A69D21AF31A934205D336
:102604000123226A03FA0BF3134200D10E61204620
:1026140000F032FCB042B941C0F2F980B5F908606B
:10262400029B002EE363C9DBD5F8149006EB460A3F
:1026340009EBCA07BB682046D7F80C80019300F069
:102644001BFC019B984271EB0801B7DBB8F1000F4A
:10265400C0F2C080D7E904317C4A934200F0F8808C
:102664007A88B5F9080092B242EA004098470246D7
:102674000B4652EA030100F0AD80002B80F2CD80BE
:102684000199B1EB020E68EB030839F93A30C7E956
:1026940002E8002B92DB686903EB430200EBC20201
:1026A400D2E90271BE4578EB010C4FEA430285DBA7
:1026B400AC462CF8083F06E003EB430100EBC101F4
:1026C4005A00D1E90271BE4578EB01011A4405DBD9
:1026D40030F9323000EBC20C002BEDDA29F83A3035
:1026E400ACF80060AB8819043FF56CAF2B69EFF3CD
:1026F400108272B6D3E8CF0F01210028FAD1C3E8C3
:10270400401F0028F6D1BFF35F8F4FF6FF76A888ED
:102714000023296900B2AE80C1E88F3F82F310889C
:102724009842FFF64FAF0746A1466E6905F10808C7
:10273400B5F9083007EB470E002BC44606EBCE0272
:1027440015DBD2E90240AA46019704E036F9353098
:102754009446002B09DB03EB430506EBC502D2E9E3
:102764000271BC4270EB0101F0DA5546019FACF8EE
:10277400007036F93E7026F83E30002FD8DAAB7977
:102784004C46002B3FF422AF0023AB71B5F908602F
:10279400721C33463BD0686905F1080E03E08E468F
:1027A4005A1C3FF415AF03EB430200EBC2014F8800
:1027B4009C463F0430F93230F1D5664581ED028BF9
:1027C400EED0AEF800302989664620F83210A5F81C
:1027D40008C0E5E739F83A302B812B69EFF3108212
:1027E40072B6D3E8CF0F01210028FAD1C3E8401F05
:1027F4000028F6D1BFF35F8F6B88296929F83A3036
:1028040000236E80C1E88F3F82F31088D6E640BF74
:1028140005B0BDEC028BBDE8F08F20460393019216
:1028240000F02AFB019A039B10EB020E43EB010814
:102834002BE700BFAFF30080FFFFFFFFFFFFFFFFA9
:1028440000800B408415032000000B40E12400208D
:1028540008460B69039198470028BBD00399D1E936
:10286400002306E738B5384B1C692CB1BDE8384065
:102874000A213648FFF712BE0321354800F0EAFA70
:10288400334D314BDD60FFF7A3FB324A4FF0504E1E
:10289400024403202C4B4FF00F0C18701A61DEF821
:1028A40000204FF6FF715A705A69A3F802C01483CE
:1028B4004FF00204A2F848404FF00404A2F8784014
:1028C4004FF00504A2F890404FF00604A2F8A84087
:1028D4004FF00704A2F8C0404FF00904A2F8F040FA
:1028E4004FF00A04A2F808414FF00B04A2F820416B
:1028F4004FF00C04A2F838414FF0010414864FF055
:102904000804A2F8D840144C4FF00D0E4FF00E0CF2
:102914009C6008249980A2F850E1A2F868C1A2F84A
:10292400600011800D4A2C620D49D360FFF7F0FB63
:1029340001210320FFF79EFB0A4B0A211C64034874
:10294400BDE83840FFF7AABD50DE02207816032008
:1029540000000B40A8FC0220FFFF10008415032098
:10296400E124002000200B400048704750DE022084
:10297400F0B583B09DF828401D46034654B9CDE90F
:10298400000200F081FA019A009B824265EB01018A
:10299400A1425BDB1969EFF3108072B6D1E8CF6F07
:1029A4000124002EFAD1C1E8464F002EF6D1BFF320
:1029B4005F8FB3F902401F69002C3EDBD3F814C0CB
:1029C40004EB440E3CF83E10002659800CEBCE017B
:1029D400C7E88F6F80F310884888C1E90225013069
:1029E400C0F30E00012838BF0120089A48800A610C
:1029F400099A40EA04404A611A69EFF3108172B6F9
:102A0400D2E8CF7F0125002FFAD1C2E8475F002F1B
:102A1400F6D1BFF35F8F9A882CF83E201A699C8008
:102A2400C2E88F6F81F3108801211C78DA68A14015
:102A340002F50153596003B0F0BD0023C7E88F3F8E
:102A440080F310884FF0FF3003B0F0BD204603B090
:102A5400F0BD00BFF0B516461F4602690346EFF30A
:102A6400108072B6D2E8CF4F0121002CFAD1C2E80F
:102A7400441F002CF6D1BFF35F8FB3F902101D6918
:102A8400002945DBD3F814E001EB41023EF8324063
:102A94000EEBC20C5C800024C5E88F4F80F31088D5
:102AA40005983546CCF8100006983E46CCF814003C
:102AB400BCF80200CCE902560130C0F30E00012834
:102AC40038BF0120ACF8020040EA0140D3F810C03E
:102AD400EFF3108572B6DCE8CF7F0126002FFAD120
:102AE400CCE8476F002FF6D1BFF35F8FB3F804C073
:102AF4002EF832C099801A69C2E88F4F85F3108886
:102B040001211C78DA68A14002F501535960F0BD37
:102B14000023C5E88F3F80F310884FF0FF30F0BDED
:102B240003464089B0EB214F3ADD58690A1402EBA1
:102B3400420210B5D3F810C000EBC200EFF3108EC0
:102B440072B6DCE8CF4F0122002CFAD1CCE8442F36
:102B5400002CF6D1BFF35F8F428889B292B28A42C9
:102B640007D000221B69C3E88F2F8EF31088002042
:102B740010BD6FEA42426FEA5242428001210022B4
:102B840018699971C0E88F2F8EF3108893F800C0EC
:102B9400DA68084602F5015301FA0CF1596010BDD8
:102BA40000207047407870472DE9F04182B0044618
:102BB4000D4600F069F94FF0FF326FF0004324181E
:102BC40045EB0105A24273EB05013CBF14461D46CB
:102BD400A61F45F1FF37B44275EB07033CBF00263F
:102BE400374600F051F9301A67EB0101012871F101
:102BF400000106DA2046294602B0BDE8F04100F0A3
:102C04007DB900F041F9864267EB010100290ADB36
:102C14000021174B3246009316483B460191FFF7BB
:102C240019FF0130E6D04FF0000C134A1349536AE0
:102C34009F4204D8906AB042DCD29F42DAD10B683A
:102C4400EFF3108072B6D3E8CF8F5FF0010EB8F1C6
:102C5400000FF8D1C3E848EFB8F1000FF3D1BFF388
:102C64005F8F0B68C3E88FCF80F3108820BFDEE747
:102C7400A524002050DE022000000B40781603201B
:102C84002DE9F04182B0064600F0FEF84FF47A7365
:102C940004464FF0FF306FF00042E6FB0341A042D0
:102CA40072EB01033ABF044615460D46A61F45F1D3
:102CB400FF37B44275EB07033CBF0026374600F0EC
:102CC400E3F8301A67EB0101012871F1000106DA1B
:102CD4002046294602B0BDE8F04100F00FB900F0EB
:102CE400D3F8864267EB010100290ADB0021174B68
:102CF4003246009316483B460191FFF7ABFE013084
:102D0400E6D04FF0000C134A1349536A9F4204D88B
:102D1400906AB042DCD29F42DAD10B68EFF31080A4
:102D240072B6D3E8CF8F5FF0010EB8F1000FF8D17F
:102D3400C3E848EFB8F1000FF3D1BFF35F8F0B681E
:102D4400C3E88FCF80F3108820BFDEE7A5240020DE
:102D540050DE022000000B4078160320EFF30582BA
:102D6400D2B282B1384B5A6A8A4202D20022104649
:102D7400704714BF012200229B6A834228BF42F09D
:102D840001021046704770B584B003922F4A06467C
:102D9400D368157818460C46029300F06DF8029B30
:102DA40005F1040C53F82CC0039AACEB000C301A58
:102DB40064EB0101604571F100010FDB20BF224B80
:102DC400596AA14207D314BF012200229B6AB3426D
:102DD40028BF42F00102104604B070BD029200F018
:102DE40053F8864264EB01010029029A1BDB18495F
:102DF4002346CDE9001215483246FFF72BFE011E8B
:102E040011DD114B5A6AA2421CD39B6AB34217D3F9
:102E14000E48FFF785FE0C4B5A6AA242D3D2002219
:102E2400104604B070BD084B5A6AA242F7D3121B75
:102E340018BF01229B6AB34228BF42F00102CAE7CD
:102E4400A242E5D120BFE3E700000B4050DE0220A0
:102E5400A524002010B4054B054C064AA04214BF1B
:102E64001846581C10BCFFF745B800BF10010320DA
:102E740000800B40DCA901200346416A0A46986A97
:102E8400596A8A42FAD17047034B596A0A46986ACA
:102E9400596A9142FAD1704700000B4000B58E4642
:102EA400154A536A9C46916A536A6345FAD140189D
:102EB40053EB0E034FF0000228BF0122BAB10E4BB0
:102EC4005A6A531C08BF104608D04FF0FF33184607
:102ED40009494A6A9A42FCD39A4207D1064B02E056
:102EE400596A914202D1996A8142F9D300BD024ADA
:102EF400526A9342ECD8EFE700000B40074A536A4A
:102F04009942FCD8994207D1044B02E05A6A914293
:102F140002D19A6A9042F9D8704700BF00000B4072
:102F240000EB400C4FEA8C0C0CF1804C0CF5803C0F
:102F340070B51E46DCF80430041FB3F5803F38BF7B
:102F44004FF48033E4B238BFCCF80430012C2ED9CE
:102F54004FF40065284B0CF5405ECEF8005053F852
:102F640020E0BEF1000F17D1DCF800E0012C8EEA5E
:102F7400421202F0E0020CF5805ECEF800202BD95C
:102F84004FF4006143F820604FF480330CF5005295
:102F94001160CCF8043070BD5D69B5FBFEFE0EF126
:102FA400010E0EEB4E0EBEF1030EFCD2DCE701293E
:102FB400CED103240CF540531C60DCF80830DB0749
:102FC400FBD5DCF800300CF5805E83EA421303F095
:102FD400E003CEF80030084B0122DCF800404C40FE
:102FE40004F00304CEF8004002FA01F1DCF80820F2
:102FF4000A42FBD0C4E700BF18010320014B53F879
:1030040020007047180103202DE9F041584C064672
:10301400206C1746B0F5803F38BF4FF480320B4622
:103024004FF0030184B038BF2264524A504CD1633C
:10303400626CD207FCD5E26B4F4982F0200202F0A9
:10304400E002CA63E26B4A4C82F0010202F003021E
:10305400CA63626C9507FCD54FF400614FF4803865
:10306400464A474DD163474A03936A610121324678
:10307400C4F840804448009700F046F94FF40061DA
:10308400039B07FB03F3B6FBF3F6636B434538BFBF
:10309400C4F83480374B2A6919633AB16B69B3FBBE
:1030A400F2F3013303EB4303033BFDD23049324ACD
:1030B4000B6B03F0E00313630B6B83F0020303F069
:1030C400030313638B6B5807FCD54FF400644FF470
:1030D40080332A4A14632D4A4B632A610A6C244CB8
:1030E4009A424FF0030238BF0B64224BDA63636CDD
:1030F400DA07FCD5E36B204A03F0E003D363E36B08
:103104001B4983F0010303F00303D3634B6C9B0758
:10311400FCD54FF480334FF40064184A6E61D463D5
:103124000B64CA6C9A4238BFCB644FF40061114BF4
:10313400AA6999643AB16B69B3FBF2F3013303EB07
:103144004303033BFDD24FF400604FF48031084A3F
:10315400094C936C83F0400303F0E003A364074B32
:10316400084CAC619864D16404B0BDE8F08100BF40
:1031740000000140003001400010014000200140E7
:1031840018010320006CDC0200000540001BB7009E
:103194002DE9F04F4FF4A078964685B00391DFF8FF
:1031A40064915649019349450AD908F1FF38A1F5BC
:1031B4003B51B8F10F0FA1F12001F4D1002066E0DA
:1031C400072301F53722029103FB03F102F5D872BC
:1031D400B2FBF1FA82454FF0010C4FF002074FF0B9
:1031E40003064FF004054FF005043FD0B3F1010A84
:1031F40000F082800AFB03F1B2FBF1FB584549D091
:103204001CB303FB04F1B2FBF1FB58454BD0E5B111
:1032140005FB03F1B2FBF1FB58454DD0AEB106FB03
:1032240003F1B2FBF1FB58454FD077B107FB03F133
:10323400B2FBF1FB584551D0BCF1000F05D00CFB9B
:1032440003F1B2FBF1FB83454DD0534603FB03F17D
:10325400B2FBF1FA824504F1FF3405F1FF3506F1C2
:10326400FF3607F1FF370CF1FF3CBFD101FB102102
:103274000029BBD172461F46DDF80CA0012020496D
:1032840001FB08F1CAF800101360019B1F6005B030
:10329400BDE8F08F01FB10210029B1D157467246D9
:1032A400DDF80CA0EAE701FB10210029AFD172463A
:1032B4002746DDF80CA0E1E701FB10210029ADD180
:1032C40072462F46DDF80CA0D8E701FB1021002937
:1032D400ABD172463746DDF80CA0CFE701FB1021D5
:1032E4000029A9D1DBE701FB10210029ADD17246E9
:1032F4006746DDF80CA0C1E7029956E750262F0077
:10330400001BB70050F80C0010B5029C8E464FEA23
:10331400043C4CEA034C1C4BB3FBF1F30168B2FBD5
:10332400F3F4002920DB194A194B904214BF4FF4DF
:1033340080424FF4004217491A6003F580531A6023
:103344008B6832EA0303FBD1212200F54053043396
:10335400C0F800E084601A600268002AFCDA0822DF
:10336400C0F80CC01A6010BD036803F03F03734536
:10337400D9D18368C3F30B03A342D4D1C36803F444
:10338400EE236345CFD110BD001BB700008005407C
:1033940000200240000002404FF0804C214B00B559
:1033A400C3F800C0002839D0DFF888C0A3F5405323
:1033B400C3F81CC0DFF880C040F0010080EA0C0CA8
:1033C400C3F820C0596298624FF0804E4FF0E0611C
:1033D400144B1548DFF864C0C3F800E0C0F808C017
:1033E40019602AB94FF00042A3F580531A6000BD5A
:1033F4004FF47A7303FB02F2B2F1807F2ABF6FF0BD
:103404007F4313461A464FF08041DFF834C0074823
:10341400CCF80030064B4260196000BD034BD86104
:10342400D2E700BF00B00D4000A0014000800D4075
:1034340000A00D40D3C007B02D3FF84FF3FFFF01AC
:10344400BC050320012300EB4000800000F1804014
:1034540000F5841041600360704700BF10B500247C
:1034640082B00B46E48A002141E800F1CDE9000373
:103474004B0254BF1021042144F25220A047DDE93D
:10348400002386460A214FF48170F44602B0BDE859
:10349400104060470023DB8A002242E800F2520217
:1034A40001D4102118470421184700BF08B503466A
:1034B40008462BB193FAA3F3B3FA83F341F0200047
:1034C4001946FFF7CBFF00BF08B503460846191E8F
:1034D40002DB1AB140F03000FFF7C0FF40F02000DB
:1034E400FAE700BF034AD2F82838002BFBD0BFF319
:1034F4005F8F704700000E400021044B044ABFF365
:103504005F8F43F8041B9342F9D170470C080E40B7
:103514002C080E404FF42A6C4FF48D70054A064B6C
:103524000649C2F800C0D06019605368002BFCDA69
:10353400704700BF0080044000A0044000B0FA00BF
:10354400704700BF08B50148FEF7A0FC00AA01209F
:1035540038B5054C054DAC4204D254F8043B9847A9
:10356400AC42FAD338BD00BFD8E5022018E60220E9
:1035740038B5054C054DAC4204D254F8043B984789
:10358400AC42FAD338BD00BF04E6022018E602209C
:103594000648DFF828C0064B064A0749C0F800C0B1
:1035A4001A608B6832EA0303FBD1704700200240A3
:1035B40000300240F6FFF303000002407F3BEFEFD0
:1035C400044BDB6CB3F5004F03D14FF48022024B64
:1035D400DA64704700001150002011504FF0E022CF
:1035E400044BD2F8881D0B43C2F8883D10EE30041A
:1035F400704700BF030330006FF06041044B054A7D
:1036040019609368DB4333F06043FAD1704700BF1D
:10361400003002400000024010B545F25320FFF78D
:1036240039FFBDE8104003460420184710B545F2A1
:103634005320FFF72FFFBDE8104003460120184731
:10364400FEF7ECBC10B5044C4FF48872A168034833
:1036540011F0AAF9A06010BD00ED00E00000002008
:10366400002370B52B4C82B0C4F88430FFF752FFAE
:103674000122294BDA63636C012BFCD10321264A16
:10368400244B11639C6B012CFCD102260525214699
:103694000523224A22480096FFF736FE21462B4690
:1036A400204A21480095FFF72FFE002204203146CE
:1036B4001E4BFFF735FC2146284600221C4BFFF722
:1036C4002FFC0022082011461A4BFFF729FC002288
:1036D40009201146174BFFF723FC00220620114650
:1036E400134BFFF71DFC0022114B07201146FFF777
:1036F40017FC0420FFF782FC00240F4BA3FB0035CA
:10370400AD0CE0B229460134FFF79CFE062CF8D13B
:1037140002B070BD0000014000300140002F685924
:1037240000000540008C864700800540001BB70060
:1037340080D1F008006CDC0283DE1B4380F30A882E
:10374400704700BF86B003B451FC0804CDE9020100
:1037540051FC0904CDE9040151EC0A04CDE9060148
:1037640003BCF047BDE800504EEC00C4BDE8005077
:103774004EEC01C4BDE800504EEC02C400BD000094
:1037840000B5FFF7DFFF02E010FE30F4F8D441EC9F
:10379400100443EC112400EE010410EE010480EE49
:1037A400200451EC1004704700B5FFF7CBFF02E092
:1037B40010FE30F4F8D441EC100443EC112400EE74
:1037C400010410EE210480EE200451EC3004704713
:1037D40000B5FFF7B7FF02E010FE30F4F8D410B5DF
:1037E40041EC100443EC112451EC040453EC052483
:1037F400A0FB024C5FF0000EE0FB03CEE1FB02CE27
:103804004CEC20440024E1FB03E444EC30E480EE7F
:10381400200451EC5004BDE81040704700B5FFF798
:1038240091FF02E010FE30F4F8D441EC100443ECB4
:10383400112451EC2104A0FB01126FEA820252FB15
:10384400100052FB12F252FB1000A0EBD07C53ECA0
:1038540004245CFB13F153EC1524A1FB022001FBAF
:10386400030053EC4424A2EB000050FB1CF24FEA8B
:10387400111312EB017043EBE27140EA515020EA5C
:10388400915020F0070053EC7524A0FB023C53EC4C
:10389400752400FB03CC01FB02CC53EC0424ACEBF9
:1038A400824C40EA5C70A0F1010041EC400480EEDF
:1038B400200451EC7004704700B5FFF743FF02E0A9
:1038C40010FE30F4F8D441EC100480EE220410EE23
:1038D400B204704700B5FFF735FF02E010FE30F484
:1038E400F8D440EC700400EE010410EE210480EEE4
:1038F400200451EC3004704700B5FFF723FF02E0C9
:1039040010FE30F4F8D440EC600400EE010410EE34
:10391400210480EE200451EC3004704700B5FFF719
:1039240011FF02E010FE30F4F8D441EC800400EE04
:10393400010410EE010480EE400410EE13047047FD
:1039440000B5FFF7FFFE02E010FE30F4F8D441ECBE
:10395400800400EE010410EE010480EE400410EE39
:103964003304704700B5FFF7EDFE02E010FE30F4BB
:10397400F8D441EC100443EC112400EE010410EEE1
:103984003004C0F30070704700B5FFF7DBFE02E0BF
:1039940010FE30F4F8D441EC100443EC112400EE92
:1039A400010410EE3004C0F38070704700B5FFF7D7
:1039B400C9FE02E010FE30F4F8D443EC102441ECCC
:1039C400110400EE010410EE30F48CBF012000203D
:1039D400704700BF00B5FFF7B5FE02E010FE30F4FB
:1039E400F8D443EC102441EC110400EE010410EE71
:1039F40030F42CBF01200020704700BF00B5FFF752
:103A0400A1FE02E010FE30F4F8D441EC100443ECC3
:103A1400112400EE010410EE30F42CBF012000202C
:103A2400704700BF00B5FFF78DFE02E010FE30F4D2
:103A3400F8D441EC100443EC112400EE010410EE20
:103A440030F48CBF01200020704700BF0022002901
:103A540050DA404261EB4101C9B1B1FA81F30B3B49
:103A640017D4D3F1200C30FA0CFC9840994051EA59
:103A74000C011A44524202F2324201EB025141F06B
:103A8400004140F2FE739A4238BF704721E011466C
:103A94007EE003F1210310FA03FCA3F1010301FA10
:103AA40003FCC3F1200320FA03F021FA03F140EAF6
:103AB4000C00A3EB020202F2324214D050F10000D7
:103AC40041EB025141F0004140F2FE739A4238BF8B
:103AD40070474FF00001A8BFC7F6F0714FF0000027
:103AE400704700217047EBD350F1000020F0010033
:103AF400E6E70022B9B1B1FA81F30B3B16D4D3F156
:103B0400200C30FA0CFC9840994051EA0C011A44FC
:103B1400524202F2324201EB025140F2FE739A42E7
:103B240038BF704720E0114600F066B803F1210366
:103B340010FA03FCA3F1010301FA03FCC3F120030F
:103B440020FA03F021FA03F140EA0C00A3EB02028D
:103B540002F2324212D050F1000041EB025140F225
:103B6400FE739A4238BF70474FF00001A8BFC7F6F2
:103B7400F0714FF00000704700217047EDD350F111
:103B8400000020F00100E8E7002880F23580404280
:103B9400B0FA80F30B3B11D4984001EB030252427C
:103BA40002F2124200EB025141F000414FF00000DA
:103BB40040F2FE739A4238BF704713E0C3F100032A
:103BC40030FA03FCC3F120029040A3EB010202F29D
:103BD40012420CEB025141F0004140F2FE739A4252
:103BE40038BF70474FF00041A8BFCFF6F0714FF0D7
:103BF400000070470021704760B3B0FA80F30B3BBC
:103C04000FD4984001EB0302524202F2124200EB3D
:103C140002514FF0000040F2FE739A4238BF7047E1
:103C240010E05B4230FA03FCC3F120029040A3EBA6
:103C3400010202F212420CEB025140F2FE739A426C
:103C440038BF70474FF00001A8BFC7F6F0714FF0BE
:103C540000007047002170470022A2F232425FEA5E
:103C6400215CACF10103A1EB03515B0513F5800F5B
:103C740032D212EB535210D40B2A36DA9140D2F1DD
:103C8400200330FA03F319439040BCF1000FA8BF9E
:103C94007047404261EB4101704720320EDD01FA6A
:103CA40002F3D2F12002D140D0401843BCF1000FFE
:103CB400A8BF7047404261EB41017047524282F312
:103CC400050231FA02F00021BCF1000FA8BF7047D1
:103CD400404261EB4101704702D00020002170474F
:103CE40050EA013118BF4FF0000C6FF0004101EBB6
:103CF400DC716FEAEC70704738B50446094815F07A
:103D040063F820460FF038FD0546064815F04AF9D9
:103D14002DB1054B2C449C4201D8284638BD03489C
:103D2400FEF7B4F8B8E50220000008200CAA012030
:103D340010B50446054815F047F820460FF024FD59
:103D4400BDE81040014815F02DB900BFB8E50220C8
:103D54009A4238BF88547047704700BF2DE9F04F2E
:103D640083B00F461146DDE90EB292079846DDE9AD
:103D74000C93064629D00D469BB109EB030405EBD1
:103D8400040A01950D460D93AAEB040214F8010DE3
:103D940043463946B047A145F6D129460D9B019DBE
:103DA4001D440F9B9B070CD56C1AA34509D92A46C1
:103DB4004346394620200134B0475C4505F10105EE
:103DC400F5D3284603B0BDE8F08F5B4515D28A468B
:103DD4001C468946ABEB03050D445246434639461F
:103DE40020200AF1010AB047AA45F6D149462346E4
:103DF400DDF83090002CC0D1E3E70D46002BBCD198
:103E0400DFE700BF2DE9F04F0F460F9906469DF8F6
:103E14002C008D079046DDE90CA299468346099C47
:103E2400DDF828C00E9B49D4002B42D1944545D2DD
:103E340001F0010504F1FF3E3020E64405E00CF1F9
:103E4400010C62450EF8010F02D9BCF1200FF6D126
:103E5400002D00F08780634530D9601E4FF0300E8E
:103E6400604405E00CF1010C9C4500F801EF25D0FD
:103E7400BCF1200FF6D1CD060ED5480551D46245CC
:103E840064D0634562D0BAF1100F4DD0BAF1020F7D
:103E940055D0BCF1200F2DD12022CDE90B310A924F
:103EA4004B464246394630460994BDE8F04FFFF789
:103EB40055BF11F001052ED19445BBD3CD061ED5B7
:103EC4004805E0D4BCF1000FD9D1BAF1100F5FD08E
:103ED400BAF1020F74D030224FF0010C2270BBF102
:103EE400000F12D1480742D52B2204F80C200CF104
:103EF4000102D2E762460CF1010C3020A054BCF15F
:103F0400200FC9D0BBF1000FECD02D2204F80C20F7
:103F14000CF10102C1E798B3944503F1FF3389D34F
:103F240099E7BAF1100FB7D18D063DD5BCF1200F3A
:103F3400B2D0582204F80C200CF1010CA9E7BCF112
:103F4400200FA9D062460CF1010C08E0BCF101027B
:103F5400BBD0BAF1100F35D0BAF1020FCDD1622027
:103F6400A05496E7CD06CAD5480588D58BE70A073D
:103F740049BF2022624604F80C200CF101028CE7B0
:103F840011F00C0F00D0013B9445FFF453AF62E7EE
:103F94008A0613D47822227030224FF0020C627009
:103FA400BBF1000F9ED0B0E7BCF1200F3FF474AF1B
:103FB400782204F80C200CF1010C6AE75822EAE795
:103FC4006222E8E78D06ACF1020004D54FF0580EEA
:103FD40004F800E091E74FF0780E04F800E08CE775
:103FE40000B9704701F050BC10B1D1E90031184755
:103FF400704700BF000000002DE9F04F97B09DED21
:10400400207BDDE9225B8046894651EC170B9A46FA
:10401400249B0C92079302460B468DED047BFFF71D
:10402400A5FC002840F0E281DDE904014FF0FF32F5
:104034006FF48013FFF7BEFC002840F0CB80DDE96D
:1040440004014FF0FF32BA4BFFF7F0FC002840F0B8
:104054009F80DDE90467B2A3D3E9002330463946E3
:10406400FFF7E4FC002840F08280AFA3D3E90023EB
:1040740030463946FFF79EFC002878D13046394651
:1040840000220023FFF796FC002840F098800D9052
:10409400079B302113F4806F08BF06250EAA2B4618
:1040A400A5F1200605E0013BB34202F8011B00F034
:1040B4006481092BF7D81E46ED1ADDE90401FFF7E8
:1040C40031FC9C4B044603EBC60393ED007B8DED62
:1040D400087BFFF703FC02460B46DDE90401FFF70A
:1040E40067FBDDE90823FFF777FBCDE90A01FFF75A
:1040F4002BFC0746FFF704FC02460B46DDE90A01E8
:10410400FFF756FB00228C4BCDE90A01FFF78EFC2A
:10411400002800F0888001373846FFF7F1FB02469B
:104124000B46DDE90801FFF759FC08B1002701340B
:10413400002E00F088800DF13703DFF810C2581903
:104144000DE0ACFB0721C90801EB8102A7EB420299
:104154003032092F00F8012F40F2FA800F46202D4B
:1041640006F1FF3605F10105EBD1202586E0079B1A
:104174009DED047BCDE923B34946534640460C9A52
:104184008DED207B229517B0BDE8F04F00F080B98B
:10419400079B494658074CBF0423032340462193F9
:1041A4005346079A48BF654CCDE922B258BF644CC8
:1041B4000C9A209417B0BDE8F04FFFF7CFBD3B46F3
:1041C400324600200021FFF7F3FA0123CDE9040170
:1041D4000D935DE7079B03F002029C07049200F035
:1041E400F3800C9F3D46574E341D14F8010D2A46AA
:1041F40053464946C047A64205F10105F5D1049B43
:104204003C1D63B10C9D631B9B4508D92246534654
:10421400494620200134C047631B9B45F6D82046FD
:1042240017B0BDE8F08F0022DDE90A01424BFFF729
:10423400C1FB00287FF47CAF002F40F0C180013720
:10424400002E7FF478AF2046FFF748FB02460B466A
:10425400DDE90401FFF7ACFA0022374B06460F46AE
:10426400FFF7A8FB40B9304639460022324BFFF72E
:10427400DDFB002800F0A0800DF137033248591906
:104284000DE080FB0476C2EBA60202EB8206A4EBEF
:10429400460630361446013501F8016F72B3202DFD
:1042A4004FEAE472EDD1079A02F00302012A14D115
:1042B400BBF1000F11D00D9A002A60D00BF1FF3B27
:1042C400BBF1200F09D930222B4404E001355D45B0
:1042D40003F8012F18D2202DF8D1079B0EACCDE99D
:1042E40002B300945346494640460C9A0195FFF7A1
:1042F40035FD0446204617B0BDE8F08F079A02F05A
:104304000302012A00F0AF80202DE6D00D9B002B84
:104314003FD02D220DEB050383F838200135DCE76F
:104324000000000065CDCD410000000065CDCDC189
:10433400FFFFEF7FD0B801200000E03F80AA0120FA
:1043440088AA012090AA012067666666CDCCCCCCF1
:10435400202D3FF40AAF30212E445A1905E00135CF
:10436400202D02F8011F3FF400AFAE42F7D12E22F8
:104374006E44013586F8382080E720259DE6079AAB
:1043840012F00C0F5AD00BF1FF3BAB459BD8202DFC
:10439400A3D0079B5A0706D52B220DEB050383F800
:1043A4003820013599E71B0797D520220DEB05032B
:1043B40083F83820013590E7013424F001045BE7E9
:1043C400F9077FF5B5AE3AE7BBF1040F7FF609AF05
:1043D4000C9B1D46043B03EB0B072A4653464946F8
:1043E40020200135C047AF42F7D1FBE6079B03F01D
:1043F40002029D07049225D00C9F3D46224EF41CD8
:1044040014F8010D2A4653464946C047A64205F111
:104414000105F5D1049BFC1C002B3FF400AF0C9D5F
:10442400631B9B457FF6FBAE22465346494620203C
:104434000134C047631B9B45F6D8F0E6AB453FF615
:1044440042AF4AE7BBF1030FD6D90C9B1D46033B91
:1044540003EB0B072A465346494620200135C04743
:10446400BD42F7D1C9E7BBF1000F3FF44DAF0D9A40
:10447400002A84D00BF1FF3B5D45FFF424AF202DCF
:104484007FF447AF29E700BF8CAA01200000000099
:104494002DE9F04F9FB01E46DDE928ABDDE92B98EE
:1044A4002A9B04460D460B920A9352465B4650469D
:1044B4005946FFF75BFA002840F0C680504659463B
:1044C4004FF0FF327B4BFFF7B1FA002840F0BC807D
:1044D400504659464FF0FF326FF48013FFF76AFAE3
:1044E400002840F0B1805046594600220023FFF7CF
:1044F40061FA002840F0DD81CDE908ABDDE908125E
:1045040018F480600B460F4608F400610C92149175
:10451400159040F0A880134340F0D080002940F06B
:10452400EC8106230A9318F00202109240F0DD8118
:104534004B46042B38BF04230E920422043B1292F0
:1045440014935046594600220023FFF733FA0028FB
:1045540040F0FB819DED087B149B0B9A03930A9B0F
:104564008DED007B029328F40063049329463346BF
:104574002046FFF741FD024618F0200F3346294636
:104584000CBF6520452002F10108A047129B0DF1E4
:10459400580A03F1FF3B0E9B002283EAE37C50465A
:1045A400DFF814E10B9FACEBE37CD90FCDF820804E
:1045B40002E0202AC44610D0AEFB0C384FEAD808DB
:1045C40008EB8803ACEB430301303033BCF1090F33
:1045D40002F1010200F8013CEBD805234FF0000C76
:1045E40006930A23DDF82080CDE90121CDE9033CBF
:1045F400CDF800A03346424629462046CDF814B0F3
:10460400FFF700FC109B8246D3B1A0EB0708C1451D
:1046140016D907EB080233462946202008F1010881
:10462400A047C145F5D87B1E4B44C7F10102A3EB5B
:104634000A035244914538BF00230AF1010A9A44FF
:1046440050461FB0BDE8F08F334629462046CDE9D9
:1046540028AB0A9CCDE92B980B9A2A941FB0BDE88D
:10466400F04FFFF7C9BC57EA020329D100293FF4F0
:104674005AAF00230E930A9B0E9A934200F3B9811A
:1046840000275046594600220023FFF793F90028DB
:1046940040F015819DED087B28F4006343F48063AA
:1046A4002C938DED287B334629462046CDE92A7983
:1046B4000B9AD3E7FFFFEF7FCDCCCCCC06230A9334
:1046C4000C9BC3F30A50A0F2FF30FFF707F9BCA319
:1046D400D3E90023FFF780F8BBA3D3E90023FFF756
:1046E40053F80C9BCDE90E01C3F3130343F07F5140
:1046F40038460022AC4B41F44011FFF759F89EA311
:10470400D3E90023FFF768F802460B46DDE90E0102
:10471400FFF73AF8FFF706F90E90FFF7DFF898A3D2
:10472400D3E90023CDE90C01FFF756F800229F4B93
:10473400FFF72AF8FFF7F6F893A3D3E90023074617
:10474400DDE90C01FFF748F8CDE90C013846FFF725
:10475400C5F88FA3D3E90023FFF73EF802460B46C2
:10476400DDE90C01FFF724F802460B46CDE90C23E2
:10477400FFF732F8CDE91001DDE90C0102460B46E2
:10478400FFF702F80022CDE91201DDE91001884BA0
:10479400FFF748F80022874BFEF7F6FF02460B4668
:1047A400DDE91001FFF73EF80022834BFEF7ECFF32
:1047B40002460B46DDE91001FFF734F8CDE910019C
:1047C400DDE90C2300204FF08041FEF7F1FF0246A3
:1047D4000B46DDE91001FEF7D7FF02460B46DDE983
:1047E4001201FFF71FF80022744BFEF7CDFF07F20A
:1047F400FF3C00224FEA0C53FEF7EEFF02460B4645
:10480400DDE90801CDE90C23FFF7D4F850B1DDE967
:104814000C010E9B0022013B0E93664BFFF702F83E
:10482400CDE90C01DDE90C010E9B02466333C62B76
:1048340008F002031093149B2DD8002B5FD004239F
:1048440012930A433FF417AFDDE9080152A3D3E9F9
:104854000023FFF7D7F848B1DDE9080150A3D3E9F5
:104864000023FFF7A7F800287FF405AF0A9B002B6D
:1048740051D0159A002A00F0AB80013B0A93129B99
:10488400994505D9109B002B00F0AE8002231093AC
:104894000023149344E02BBBB9F1050F4FD908F062
:1048A4000203002B49D105231293A9F105031493A4
:1048B4003AE00BF10043CDF820A009931EE628F45A
:1048C400006343F480632046CDE92A792C93334670
:1048D400DDE908673446294607F10045CDE9284556
:1048E4000B9ABBE605231293ABE702220023109236
:1048F4000422149312920E9323E60527C1E6B9F11C
:10490400040F1FD9109B002B76D104231293A9F115
:104914000403149304E0129B99455ED80A9B1493F4
:104924000E9B002B3FF40DAEDDE90801DDE90C23FD
:10493400FEF778FFCDE9080103E60223109305236F
:104944001293F1E704231293EAE7149BDDE908A725
:1049540003930A9B07F1004B029328F400630B9A1C
:104964000493294633462046CDE900ABFFF744FBC8
:10497400024601E6AFF3008061436F63A787D23F2D
:1049840071A379094F930A401655B5BBB16B024028
:10499400EF39FAFE422EE63F2D431CEBE2361A3F76
:1049A4000000000080842E410000F83F0000E03F3A
:1049B40000002C4000002440000018400000F03F9C
:1049C400FB799F501344D33FB3C8608B288AC63FFA
:1049D400129B994515D81492A2E7109B23B10A9B08
:1049E4001493022310939BE7129BA9EB03031493E4
:1049F40096E79B1A5F1E44E6042312930223109346
:104A04008EE7109B002BEFD002231492109387E7BC
:104A14002DE9F04F91469A4C9A4AB1F1000A9BB0A5
:104A240018BF834614601878974ADDF8908008BF51
:104A34009346002800F08A821D460026CDF8209077
:104A440008E032465146089BD847013628780028AA
:104A540000F0C780252805F10105F2D100222B467C
:104A640013F8011BA1F1200010280AD8DFE800F098
:104A74003F09093B090909090909093709330909E2
:104A84002F00A1F13000092840F289802A2900F082
:104A9400E98000242E2900F094800027A1F1680009
:104AA40012282CD8DFE810F04E012B0049012B000E
:104AB40040012B002B002B002B002B002B002B0084
:104AC40027002B002B002B002B002B0027001D465A
:104AD40042F00102C3E71D4642F00202BFE71D4651
:104AE40042F00402BBE71D4642F01002B7E71D4640
:104AF40042F00802B3E7697842F48072013367290F
:104B04001D467ED8242940F2B880A1F12503422B0A
:104B140000F2B380DFE813F05101B100B100B1003D
:104B2400B100B100B100B100B100B100B100B100F9
:104B3400B100B100B100B100B100B100B100B100E9
:104B4400B100B100B100B100B100B100B100B100D9
:104B5400B100B100B100B1001E013A011E01B10063
:104B6400B100B100B100B100B100B100B100B100B9
:104B7400B100B100B100B100B100B100B100B401A5
:104B8400B100B100B100B100B100B100B100B10099
:104B9400B100B4015801B4011E013A011E01002400
:104BA40004EB840401EB440419781D46A1F13000A0
:104BB4000928A4F1300403F10103F1D92E297FF46B
:104BC4006CAF69781846A1F13007092F42F480626E
:104BD40040F225812A2900F032811D460027013345
:104BE4005CE73446DDF82090B14501D809F1FF3681
:104BF4004B46324651460020D84720461BB0BDE8FC
:104C0400F08FA1F16903DBB20F2B36D8012049F2F2
:104C1400410C984010EA0C0040F0F4800A2B35D087
:104C2400072B2AD158F8041B002940F0108122F0E8
:104C3400100412F4806144F0210400F00A8112AAE5
:104C4400082305931023CDE90020324606940497E7
:104C540003930023029351465846089BFFF7D2F86A
:104C64000646F3E658F8044B6978002C1D46BCBF91
:104C740042F00202644201330CE70846E1E600BF59
:104C840079490020B8050320C13C002058F8049B52
:104C9400002F99F8000014BF3B464FF0FF33002863
:104CA40000F08183494603EB090C04E011F8013F4D
:104CB400002B00F043818C45F8D1ACEB090153057E
:104CC40040F12081B94228BF394612F0020300F0B6
:104CD40083820223CDE9094832468846089C37443A
:104CE4000B9307E023465146D84719F8010F0136C4
:104CF40010B13246B742F5D10B9B4146099CDDF811
:104D04002880002B3FF4A2AE37468C427FF69EAE3D
:104D14002644089C761A3A462346514620200137F9
:104D2400D847B742F7D191E669786C297FF4E4AEAD
:104D3400A97842F44072EB1CE1E6697842F400720F
:104D44000133DCE66978682900F0FB8042F08002D8
:104D54000133D4E6672900F0C980472900F0CD80EB
:104D6400452900F0CC80CDE9034208F107080297F9
:104D740028F007083246F8E802675146CDE9006793
:104D84005846089BFFF784FB06465FE6462908BFA2
:104D940042F02002CDE9034208F10708029728F007
:104DA40007083246F8E802675146CDE900675846DD
:104DB400089BFFF721F9064648E63246514625206E
:104DC400089BD847013641E608F10403920709938A
:104DD40006F1010740F1C3803246514698F80000BD
:104DE400089BD847012C40F2B4812644089C3A46DB
:104DF4002346514620200137D847B742F7D1DDF882
:104E0400248023E66F2974D040F24182782900F08F
:104E140086814FF00A0922F010024B4638E0002741
:104E240007EB870701EB4701A1F1300710F8011FD9
:104E3400A1F13003092BF3D90546431C2EE658F89B
:104E4400047BA97802356B1C27EAE77726E642F053
:104E5400210412AA944602E020283FF4F1AE01F0A6
:104E64000F03092B94BF303337330F298CF80030EC
:104E740000F101000CF1010C4FEA1111ECD8DFE64E
:104E8400582966D0622940F089804FF002094B46C8
:104E940012F4806C00F0D48022F00D02099212F416
:104EA400007140F07B8112F4807008F1040940F035
:104EB4003882510640F13A8198F80010002940F0F8
:104EC4004A81099A22F010020992BCF1000F00F005
:104ED4004281084612AA0999CDE90337CDE9054173
:104EE40001900023009202933246A1E042F4006252
:104EF40039E74FF008094B46CAE742F4006242F032
:104F0400200230E712F0020300F08C810223CDE985
:104F140009481F468846089C324623465146D847CE
:104F240019F8010F01360028F6D13B464146099C89
:104F3400DDF82880002B3FF489ADE5E6A1EB0901FB
:104F4400BDE6A97842F0C002EB1CD8E5044606464B
:104F54004AE64FF0100942F020024B4698E7012C34
:104F640040F2F180374606F1FF39CDF82880DDF8AC
:104F74002080A1443A464346514620200137D84771
:104F84004F45F7D1DDF828803A4698F8000051469D
:104F9400089BD8472644DDF8248057E512F4806343
:104FA40000F0C1804FF4806322F0110010F4007E01
:104FB4004AD110F4807C08F1040940F0378141069D
:104FC40000F1A980020640F1E081B8F9002082EAEC
:104FD400E271A1EBE2711FFA81FED10F0991002A5F
:104FE40000F05F81734612AA9646DFF8AC830A94F8
:104FF40003E0BCF1200F23460FD0A8FB0314E40800
:1050040004EB8401A3EB41010EF1010E3031092BB5
:105014000CF1010C0EF8011CEBD80A9C099B0092C0
:10502400CDE901C30A233246CDE905400497039331
:1050340051465846089BFEF7E5FEC846064605E578
:1050440022F00C0209922AE708F1070828F0070861
:10505400D8F8042058F808CBD10F5CEA020E6CD0C3
:10506400002A634602DA5B4262EB420291460993EC
:1050740012AA94464FF0000ECDE90A18CDE90C4768
:105084000E960F9203E0BEF1200F3B4630D04FF056
:10509400CC3213EB0901C04F41F10001A7FB0146DB
:1050A40026F0030404EB9604091B5C1A02FB04F6C5
:1050B4003A4669F1000802FB08660522A4FB07745E
:1050C40007F001082644A8FB024864180A2B0CF1D7
:1050D400010C4FEA570704F1300479F100090EF18D
:1050E400010E0CF8014C47EAC6774FEA5609CAD2BA
:1050F4007346DDE90A18DDE90C470E9E0F9ACDF8D8
:1051040024E0CDE901310A230092CDE9054032467D
:10511400049703939FE598F8002096465DE74FF0C7
:1051240010094B46B4E622F010003FE711064CBFCD
:10513400B8F80010D8F80010C0E6002B40F0418108
:105144009946099394E73246514698F80000089B23
:10515400D8473E4653E6099A0A9412F0200F14BF2A
:105164004FF041084FF0610812AA9446A8F10A08CA
:1051740002E0202871460FD0B1FBF3FE03FB1E149E
:10518400092C94BF3034444499428CF8004000F117
:1051940001000CF1010CECD20A9C9CE608F1070812
:1051A40028F00708D8F8042058F8081B0A920A4384
:1051B4008E467BD1099A22F010020992BCF1000FAD
:1051C40074D0002012AA0999CDE90020CDE9054147
:1051D4003246CDE903373CE58C4298BF01317FF676
:1051E40079AD4FF48063CDE909949946A2190B97E0
:1051F400089F541A32463B46514620200136D84770
:10520400A642F7D1DDE90A474B46DDF8249099F828
:10521400000000283FF41AAC611C002B3FF477AE69
:10522400002357E58C42DED8013170E6D8F800201F
:10523400D10F002A00F0B28082EAE273A3EBE2739A
:1052440012AA9446CDE90914DFF84C8103E0BEF1BB
:10525400200F23460FD0A8FB0314E40804EB8401B9
:10526400A3EB41010CF1010C3031092B0EF1010EBD
:105274000CF8011CEBD8DDE909140A230092CDE9EE
:1052840005403246CDE901E104970393D0E669294C
:1052940022F0100040F0908012F480633FF486AE58
:1052A40080E6002B3FF49FAE12AAB7E6099ACDE937
:1052B4000B8412F0200F14BF41216121CDE90D763A
:1052C400CDE90F3BCDF844A00027F0460A9C12AE6E
:1052D4000DF1480BA1F10A0A03E0202F80460C4689
:1052E40013D021464A46002340460EF043F8D2B27A
:1052F400092A94BF30325244C84574F10004327014
:1053040007F1010706F10106E7D23846DDE90B840F
:105314005A460E9E0D9F0F9BDDF844A0DDF840B069
:1053240051E7D8F800E0BEF1000F0DD122F01002D1
:105334000992BCF1000F07D012AA0998CDE90337EE
:10534400CDE905400191CCE5099A12F0200F14BF74
:105354004120612012AA94460A92A0F10A0202E0B6
:105364002029C6460FD0BEFBF3F803FB18E009283A
:1053740094BF303080189E458CF8000001F1010183
:105384000CF1010CECD20A9AD7E7D8F8002082EA93
:10539400E27EAEEBE27E20E6CDCCCCCC002B3FF41B
:1053A4004FAF12AA69E712F480610ED012F0020125
:1053B40014D001463746A8E44FF00A0902464B468A
:1053C40066E5002312AA09939BE612F002037FF418
:1053D4009BAC002C7FF407AFFFF738BB002C7FF4A5
:1053E40000AFFFF733BB00BF0EB400B584B00DF1BE
:1053F400140C5CF8043B01464FF0FF32CDF800C0BA
:105404000448CDF80CC0FFF703FB04B05DF804EBCF
:1054140003B07047B93C00200CB400B585B00DF161
:10542400180C5CF8043B0A46CDF800C00146054858
:10543400CDF80CC0FFF7ECFA05B05DF804EB02B050
:10544400704700BFB93C002030B583B000931346C9
:105454000A4601460248FFF7DBFA03B030BD00BF3D
:10546400B93C00208C4610B584B0009302901346DA
:1054740002A94FF0FF320348CDF80CC0FFF7C8FA79
:1054840004B010BD513F00200FB410B50E4B84B0D2
:1054940006A91C6851F8043B03915CB100914FF0DC
:1054A400FF3202A90948A047012004B0BDE810401A
:1054B40004B07047184600F029FA204604B0BDE84D
:1054C400104004B0704700BFB8050320493F0020D6
:1054D40010B5094A84B014684CB1034600914FF0EA
:1054E400FF3203A90548A047012004B010BD00F015
:1054F4000DFA204604B010BDB8050320493F002032
:1055040000BEFDE7074A0346106838B10649034464
:105514008B428CBF4FF0FF3013607047034908463D
:105524001160F3E7A0010320000008207417032092
:1055340008B5FFF7E5FF00BF00B50C4686461946DF
:1055440083B06AB11046DFF824C001902346724646
:105554000548CDF800C0FFF797FF0120FFF7D0FF03
:10556400DFF80CC06046F0E7A8AA012098AA012041
:1055740044AF012038B5074C074D0848FEF7DEF864
:10558400FDF7E6FFAC4204D254F8043B9847AC4222
:10559400FAD338BD18E6022028E60220F0F80720E6
:1055A400036808461146184770B505460846697DE4
:1055B40082B000294FD0002A25DD037814460A2B37
:1055C400064622D0012C4FF0000E0DD032460123A6
:1055D40012F801CF1946BCF10A0F03F1010320D0E0
:1055E4009C42F5D1744505DD2B68A4EB0E0106EB56
:1055F4000E009847311911F8013CA3F10D03B3FAD9
:1056040083F35B092B7502B070BD2B7D002BD9D1C0
:1056140002212B6813489847012CEBD04FF0010E60
:10562400D4E712F8010C0D28DAD08E4506EB0E00F3
:10563400A1EB0E0105DACDE900322B689847DDE9CC
:105644000032CDE9003202212B6806489847009BBE
:10565400019A9E46C4E711462B6802B0BDE870402B
:10566400184700BF20B9012070B50B680C46802B89
:10567400054682B005D05A1C234422601D7102B035
:1056840070BD0E4B186878B90023012223442260B0
:105694001D7102B070BD2268211D0190FFF784FFC7
:1056A400019800690028EFD00368002BF9D0044B5F
:1056B4001B68002BEFD08342F3D1ECE78801032071
:1056C4009C0103202DE9F04782B090461C460D460C
:1056D4000746FDF7D9FB4FF0FF3C6FF000462E4A1A
:1056E400821841F10003944576EB03013CBF624606
:1056F40033462A4813F006FC6B1C824640D00CB398
:10570400274E284B1C68B4B1B8F1000F1CD1DFF848
:105714009C8001E0246974B12368002BFAD0D8F886
:1057240000300BB19C42F5D120462A463946B04799
:105734002469002CF0D1BAF1000F26D1284602B01A
:10574400BDE8F087184EDCE74FF00A09DFF85C800B
:1057540002E02469002CEED02368002BF9D0D8F89D
:1057640000300BB1A342F4D12A4639462046B04753
:10577400012220460DF107018DF80790B047E8E7B4
:1057840038460FF087F90546B9E7044813F00AFCD8
:10579400284602B0BDE8F08740420F00C0E5022071
:1057A4001155002088010320095500209C01032085
:1057B400084A136823B90AE003F110021B6933B1E4
:1057C4008342F9D129B9186910601961704701B190
:1057D4001060704788010320074B10B51C682CB17A
:1057E400636823B198472469002CF9D110BD24695A
:1057F400002CF5D110BD00BF880103202DE9F04134
:1058040082B00646FDF740FB4FF0FF326FF00043D5
:10581400361841F10007B24273EB07013CBF16464C
:105824001F46DFF86080154DD8F8004014B912E027
:10583400246984B12B680BB19C42F9D1A368002B75
:10584400F6D0012101A898470028F1DD9DF8040055
:1058540002B0BDE8F0810A4B5A6A974209D89B6AA4
:10586400B34204D36FF0010002B0BDE8F081974267
:10587400F8D101200021FDF711FBD5E79C0103209D
:1058840000000B4088010320F0B583B006468DF874
:105894000700FDF7F9FA4FF0FF356FF00044174A9F
:1058A400821841F10003954274EB03013CBF234687
:1058B4002A46134813F026FB124B07461C689CB17A
:1058C400114D01E024697CB12368002BFAD02B68C8
:1058D4000BB19C42F6D1204601220DF10701FFF7DE
:1058E40063FE2469002CEFD117B9304603B0F0BD34
:1058F400034813F057FB304603B0F0BD40420F009D
:10590400C0E50220880103209C01032038B5044629
:105914000FF0C0F8012305461A4620462946FFF732
:10592400D1FE084B1C682CB163682BB198472469DD
:10593400002CF9D1284638BD2469002CF4D128461E
:1059440038BD00BF880103202DE9F041A2B00E4606
:105954000546FDF799FA4FF0FF3C6FF00044254AE5
:10596400821841F10003944574EB03013CBF2346C4
:105974006246214813F0C6FA0024334607462A46F5
:105984001E4801A90194FFF76DFD1D4E019B804641
:105994003468BBB1002C2AD01A4D01E0246974B1DB
:1059A4002368002BFAD02B680BB1A342F6D1204612
:1059B400019A02A9FFF7F8FD2469002CF0D12346CF
:1059C400346801932CB1636843B198472469002C6F
:1059D400F9D12FB9404622B0BDE8F0812469F1E73E
:1059E400054813F0DFFA404622B0BDE8F081019487
:1059F400EFE700BF40420F00C0E50220D155002070
:105A0400880103209C0103200FB400B583B004A9CE
:105A140051F8040B0191FFF797FF03B05DF804EB15
:105A240004B07047704700BF0022014B1A707047E2
:105A34006E1703204B79FF2B0BD1887948B9CB79AA
:105A4400012B07D1082A05D9034B8A7809201A703B
:105A540070470020704700BF6E1703200120704775
:105A6400012901D00120704708B5104B91881B789B
:105A7400994201D0002008BD5378012B08D0022B95
:105A8400F8D1002164220846FDF786FC012008BDF8
:105A94005188CB0548BF480AC1F3402258BF4FF094
:105AA400FF3001F07F01FDF70FFD00BF6E170320EB
:105AB40000487047ECB90120012907D15378012B24
:105AC40002D19388072B03D0002070470120704730
